{
  "_format": "hh-sol-artifact-1",
  "contractName": "Tokenatic",
  "sourceName": "contracts/Tokenatic.sol",
  "abi": [
    {
      "inputs": [],
      "stateMutability": "nonpayable",
      "type": "constructor"
    },
    {
      "anonymous": false,
      "inputs": [
        {
          "indexed": true,
          "internalType": "address",
          "name": "owner",
          "type": "address"
        },
        {
          "indexed": true,
          "internalType": "address",
          "name": "spender",
          "type": "address"
        },
        {
          "indexed": false,
          "internalType": "uint256",
          "name": "value",
          "type": "uint256"
        }
      ],
      "name": "Approval",
      "type": "event"
    },
    {
      "anonymous": false,
      "inputs": [
        {
          "indexed": true,
          "internalType": "address",
          "name": "from",
          "type": "address"
        },
        {
          "indexed": true,
          "internalType": "address",
          "name": "to",
          "type": "address"
        },
        {
          "indexed": false,
          "internalType": "uint256",
          "name": "value",
          "type": "uint256"
        }
      ],
      "name": "Transfer",
      "type": "event"
    },
    {
      "anonymous": false,
      "inputs": [
        {
          "indexed": false,
          "internalType": "address",
          "name": "from",
          "type": "address"
        },
        {
          "indexed": false,
          "internalType": "address",
          "name": "receiver",
          "type": "address"
        },
        {
          "indexed": false,
          "internalType": "uint256",
          "name": "amount",
          "type": "uint256"
        },
        {
          "indexed": false,
          "internalType": "string",
          "name": "message",
          "type": "string"
        },
        {
          "indexed": false,
          "internalType": "uint256",
          "name": "timestamp",
          "type": "uint256"
        },
        {
          "indexed": false,
          "internalType": "string",
          "name": "keyword",
          "type": "string"
        }
      ],
      "name": "TransferBlock",
      "type": "event"
    },
    {
      "inputs": [
        {
          "internalType": "address payable",
          "name": "receiver",
          "type": "address"
        },
        {
          "internalType": "uint256",
          "name": "amount",
          "type": "uint256"
        },
        {
          "internalType": "string",
          "name": "message",
          "type": "string"
        },
        {
          "internalType": "string",
          "name": "keyword",
          "type": "string"
        }
      ],
      "name": "addToBlockChain",
      "outputs": [],
      "stateMutability": "nonpayable",
      "type": "function"
    },
    {
      "inputs": [
        {
          "internalType": "address",
          "name": "owner",
          "type": "address"
        },
        {
          "internalType": "address",
          "name": "spender",
          "type": "address"
        }
      ],
      "name": "allowance",
      "outputs": [
        {
          "internalType": "uint256",
          "name": "",
          "type": "uint256"
        }
      ],
      "stateMutability": "view",
      "type": "function"
    },
    {
      "inputs": [
        {
          "internalType": "address",
          "name": "spender",
          "type": "address"
        },
        {
          "internalType": "uint256",
          "name": "amount",
          "type": "uint256"
        }
      ],
      "name": "approve",
      "outputs": [
        {
          "internalType": "bool",
          "name": "",
          "type": "bool"
        }
      ],
      "stateMutability": "nonpayable",
      "type": "function"
    },
    {
      "inputs": [
        {
          "internalType": "address",
          "name": "account",
          "type": "address"
        }
      ],
      "name": "balanceOf",
      "outputs": [
        {
          "internalType": "uint256",
          "name": "",
          "type": "uint256"
        }
      ],
      "stateMutability": "view",
      "type": "function"
    },
    {
      "inputs": [],
      "name": "decimals",
      "outputs": [
        {
          "internalType": "uint8",
          "name": "",
          "type": "uint8"
        }
      ],
      "stateMutability": "view",
      "type": "function"
    },
    {
      "inputs": [
        {
          "internalType": "address",
          "name": "spender",
          "type": "address"
        },
        {
          "internalType": "uint256",
          "name": "subtractedValue",
          "type": "uint256"
        }
      ],
      "name": "decreaseAllowance",
      "outputs": [
        {
          "internalType": "bool",
          "name": "",
          "type": "bool"
        }
      ],
      "stateMutability": "nonpayable",
      "type": "function"
    },
    {
      "inputs": [],
      "name": "getAllTransactions",
      "outputs": [
        {
          "components": [
            {
              "internalType": "address",
              "name": "sender",
              "type": "address"
            },
            {
              "internalType": "address",
              "name": "receiver",
              "type": "address"
            },
            {
              "internalType": "uint256",
              "name": "amount",
              "type": "uint256"
            },
            {
              "internalType": "string",
              "name": "message",
              "type": "string"
            },
            {
              "internalType": "uint256",
              "name": "timestamp",
              "type": "uint256"
            },
            {
              "internalType": "string",
              "name": "keyword",
              "type": "string"
            }
          ],
          "internalType": "struct Tokenatic.TransferStruct[]",
          "name": "",
          "type": "tuple[]"
        }
      ],
      "stateMutability": "view",
      "type": "function"
    },
    {
      "inputs": [],
      "name": "getTransactionCount",
      "outputs": [
        {
          "internalType": "uint256",
          "name": "",
          "type": "uint256"
        }
      ],
      "stateMutability": "view",
      "type": "function"
    },
    {
      "inputs": [
        {
          "internalType": "address",
          "name": "spender",
          "type": "address"
        },
        {
          "internalType": "uint256",
          "name": "addedValue",
          "type": "uint256"
        }
      ],
      "name": "increaseAllowance",
      "outputs": [
        {
          "internalType": "bool",
          "name": "",
          "type": "bool"
        }
      ],
      "stateMutability": "nonpayable",
      "type": "function"
    },
    {
      "inputs": [],
      "name": "name",
      "outputs": [
        {
          "internalType": "string",
          "name": "",
          "type": "string"
        }
      ],
      "stateMutability": "view",
      "type": "function"
    },
    {
      "inputs": [],
      "name": "symbol",
      "outputs": [
        {
          "internalType": "string",
          "name": "",
          "type": "string"
        }
      ],
      "stateMutability": "view",
      "type": "function"
    },
    {
      "inputs": [],
      "name": "totalSupply",
      "outputs": [
        {
          "internalType": "uint256",
          "name": "",
          "type": "uint256"
        }
      ],
      "stateMutability": "view",
      "type": "function"
    },
    {
      "inputs": [
        {
          "internalType": "address",
          "name": "to",
          "type": "address"
        },
        {
          "internalType": "uint256",
          "name": "amount",
          "type": "uint256"
        }
      ],
      "name": "transfer",
      "outputs": [
        {
          "internalType": "bool",
          "name": "",
          "type": "bool"
        }
      ],
      "stateMutability": "nonpayable",
      "type": "function"
    },
    {
      "inputs": [
        {
          "internalType": "address",
          "name": "from",
          "type": "address"
        },
        {
          "internalType": "address",
          "name": "to",
          "type": "address"
        },
        {
          "internalType": "uint256",
          "name": "amount",
          "type": "uint256"
        }
      ],
      "name": "transferFrom",
      "outputs": [
        {
          "internalType": "bool",
          "name": "",
          "type": "bool"
        }
      ],
      "stateMutability": "nonpayable",
      "type": "function"
    }
  ],
  "bytecode": "0x608060405260006005553480156200001657600080fd5b506040518060400160405280600981526020017f546f6b656e6174696300000000000000000000000000000000000000000000008152506040518060400160405280600381526020017f544e54000000000000000000000000000000000000000000000000000000000081525081600390805190602001906200009b92919062000256565b508060049080519060200190620000b492919062000256565b505050620000cd336305f5e100620000d360201b60201c565b620004a4565b600073ffffffffffffffffffffffffffffffffffffffff168273ffffffffffffffffffffffffffffffffffffffff16141562000146576040517f08c379a00000000000000000000000000000000000000000000000000000000081526004016200013d9062000359565b60405180910390fd5b6200015a600083836200024c60201b60201c565b80600260008282546200016e9190620003a9565b92505081905550806000808473ffffffffffffffffffffffffffffffffffffffff1673ffffffffffffffffffffffffffffffffffffffff1681526020019081526020016000206000828254620001c59190620003a9565b925050819055508173ffffffffffffffffffffffffffffffffffffffff16600073ffffffffffffffffffffffffffffffffffffffff167fddf252ad1be2c89b69c2b068fc378daa952ba7f163c4a11628f55a4df523b3ef836040516200022c91906200037b565b60405180910390a362000248600083836200025160201b60201c565b5050565b505050565b505050565b828054620002649062000410565b90600052602060002090601f016020900481019282620002885760008555620002d4565b82601f10620002a357805160ff1916838001178555620002d4565b82800160010185558215620002d4579182015b82811115620002d3578251825591602001919060010190620002b6565b5b509050620002e39190620002e7565b5090565b5b8082111562000302576000816000905550600101620002e8565b5090565b600062000315601f8362000398565b91507f45524332303a206d696e7420746f20746865207a65726f2061646472657373006000830152602082019050919050565b620003538162000406565b82525050565b60006020820190508181036000830152620003748162000306565b9050919050565b600060208201905062000392600083018462000348565b92915050565b600082825260208201905092915050565b6000620003b68262000406565b9150620003c38362000406565b9250827fffffffffffffffffffffffffffffffffffffffffffffffffffffffffffffffff03821115620003fb57620003fa62000446565b5b828201905092915050565b6000819050919050565b600060028204905060018216806200042957607f821691505b6020821081141562000440576200043f62000475565b5b50919050565b7f4e487b7100000000000000000000000000000000000000000000000000000000600052601160045260246000fd5b7f4e487b7100000000000000000000000000000000000000000000000000000000600052602260045260246000fd5b611bc280620004b46000396000f3fe608060405234801561001057600080fd5b50600436106100ea5760003560e01c8063395093511161008c578063a457c2d711610066578063a457c2d714610263578063a9059cbb14610293578063b2da0960146102c3578063dd62ed3e146102df576100ea565b806339509351146101e557806370a082311461021557806395d89b4114610245576100ea565b806323b872dd116100c857806323b872dd1461015b57806327506f531461018b5780632e7700f0146101a9578063313ce567146101c7576100ea565b806306fdde03146100ef578063095ea7b31461010d57806318160ddd1461013d575b600080fd5b6100f761030f565b6040516101049190611743565b60405180910390f35b610127600480360381019061012291906111c3565b6103a1565b6040516101349190611728565b60405180910390f35b6101456103c4565b6040516101529190611845565b60405180910390f35b61017560048036038101906101709190611174565b6103ce565b6040516101829190611728565b60405180910390f35b6101936103fd565b6040516101a09190611706565b60405180910390f35b6101b1610640565b6040516101be9190611845565b60405180910390f35b6101cf61064a565b6040516101dc9190611860565b60405180910390f35b6101ff60048036038101906101fa91906111c3565b610653565b60405161020c9190611728565b60405180910390f35b61022f600480360381019061022a919061107c565b61068a565b60405161023c9190611845565b60405180910390f35b61024d6106d2565b60405161025a9190611743565b60405180910390f35b61027d600480360381019061027891906111c3565b610764565b60405161028a9190611728565b60405180910390f35b6102ad60048036038101906102a891906111c3565b6107db565b6040516102ba9190611728565b60405180910390f35b6102dd60048036038101906102d891906110a5565b6107fe565b005b6102f960048036038101906102f49190611138565b6109c1565b6040516103069190611845565b60405180910390f35b60606003805461031e90611a77565b80601f016020809104026020016040519081016040528092919081815260200182805461034a90611a77565b80156103975780601f1061036c57610100808354040283529160200191610397565b820191906000526020600020905b81548152906001019060200180831161037a57829003601f168201915b5050505050905090565b6000806103ac610a48565b90506103b9818585610a50565b600191505092915050565b6000600254905090565b6000806103d9610a48565b90506103e6858285610c1b565b6103f1858585610ca7565b60019150509392505050565b60606006805480602002602001604051908101604052809291908181526020016000905b8282101561063757838290600052602060002090600602016040518060c00160405290816000820160009054906101000a900473ffffffffffffffffffffffffffffffffffffffff1673ffffffffffffffffffffffffffffffffffffffff1673ffffffffffffffffffffffffffffffffffffffff1681526020016001820160009054906101000a900473ffffffffffffffffffffffffffffffffffffffff1673ffffffffffffffffffffffffffffffffffffffff1673ffffffffffffffffffffffffffffffffffffffff1681526020016002820154815260200160038201805461050a90611a77565b80601f016020809104026020016040519081016040528092919081815260200182805461053690611a77565b80156105835780601f1061055857610100808354040283529160200191610583565b820191906000526020600020905b81548152906001019060200180831161056657829003601f168201915b50505050508152602001600482015481526020016005820180546105a690611a77565b80601f01602080910402602001604051908101604052809291908181526020018280546105d290611a77565b801561061f5780601f106105f45761010080835404028352916020019161061f565b820191906000526020600020905b81548152906001019060200180831161060257829003601f168201915b50505050508152505081526020019060010190610421565b50505050905090565b6000600554905090565b60006002905090565b60008061065e610a48565b905061067f81858561067085896109c1565b61067a9190611942565b610a50565b600191505092915050565b60008060008373ffffffffffffffffffffffffffffffffffffffff1673ffffffffffffffffffffffffffffffffffffffff168152602001908152602001600020549050919050565b6060600480546106e190611a77565b80601f016020809104026020016040519081016040528092919081815260200182805461070d90611a77565b801561075a5780601f1061072f5761010080835404028352916020019161075a565b820191906000526020600020905b81548152906001019060200180831161073d57829003601f168201915b5050505050905090565b60008061076f610a48565b9050600061077d82866109c1565b9050838110156107c2576040517f08c379a00000000000000000000000000000000000000000000000000000000081526004016107b990611825565b60405180910390fd5b6107cf8286868403610a50565b60019250505092915050565b6000806107e6610a48565b90506107f3818585610ca7565b600191505092915050565b6001600560008282546108119190611942565b9250508190555060066040518060c001604052803373ffffffffffffffffffffffffffffffffffffffff1681526020018673ffffffffffffffffffffffffffffffffffffffff16815260200185815260200184815260200142815260200183815250908060018154018082558091505060019003906000526020600020906006020160009091909190915060008201518160000160006101000a81548173ffffffffffffffffffffffffffffffffffffffff021916908373ffffffffffffffffffffffffffffffffffffffff16021790555060208201518160010160006101000a81548173ffffffffffffffffffffffffffffffffffffffff021916908373ffffffffffffffffffffffffffffffffffffffff160217905550604082015181600201556060820151816003019080519060200190610950929190610f32565b506080820151816004015560a0820151816005019080519060200190610977929190610f32565b5050507fe4d50f5832b62a429a581c9f8d69abcceb4deae0109426e80e0edd56cf89241c3385858542866040516109b396959493929190611697565b60405180910390a150505050565b6000600160008473ffffffffffffffffffffffffffffffffffffffff1673ffffffffffffffffffffffffffffffffffffffff16815260200190815260200160002060008373ffffffffffffffffffffffffffffffffffffffff1673ffffffffffffffffffffffffffffffffffffffff16815260200190815260200160002054905092915050565b600033905090565b600073ffffffffffffffffffffffffffffffffffffffff168373ffffffffffffffffffffffffffffffffffffffff161415610ac0576040517f08c379a0000000000000000000000000000000000000000000000000000000008152600401610ab790611805565b60405180910390fd5b600073ffffffffffffffffffffffffffffffffffffffff168273ffffffffffffffffffffffffffffffffffffffff161415610b30576040517f08c379a0000000000000000000000000000000000000000000000000000000008152600401610b2790611785565b60405180910390fd5b80600160008573ffffffffffffffffffffffffffffffffffffffff1673ffffffffffffffffffffffffffffffffffffffff16815260200190815260200160002060008473ffffffffffffffffffffffffffffffffffffffff1673ffffffffffffffffffffffffffffffffffffffff168152602001908152602001600020819055508173ffffffffffffffffffffffffffffffffffffffff168373ffffffffffffffffffffffffffffffffffffffff167f8c5be1e5ebec7d5bd14f71427d1e84f3dd0314c0f7b2291e5b200ac8c7c3b92583604051610c0e9190611845565b60405180910390a3505050565b6000610c2784846109c1565b90507fffffffffffffffffffffffffffffffffffffffffffffffffffffffffffffffff8114610ca15781811015610c93576040517f08c379a0000000000000000000000000000000000000000000000000000000008152600401610c8a906117a5565b60405180910390fd5b610ca08484848403610a50565b5b50505050565b600073ffffffffffffffffffffffffffffffffffffffff168373ffffffffffffffffffffffffffffffffffffffff161415610d17576040517f08c379a0000000000000000000000000000000000000000000000000000000008152600401610d0e906117e5565b60405180910390fd5b600073ffffffffffffffffffffffffffffffffffffffff168273ffffffffffffffffffffffffffffffffffffffff161415610d87576040517f08c379a0000000000000000000000000000000000000000000000000000000008152600401610d7e90611765565b60405180910390fd5b610d92838383610f28565b60008060008573ffffffffffffffffffffffffffffffffffffffff1673ffffffffffffffffffffffffffffffffffffffff16815260200190815260200160002054905081811015610e18576040517f08c379a0000000000000000000000000000000000000000000000000000000008152600401610e0f906117c5565b60405180910390fd5b8181036000808673ffffffffffffffffffffffffffffffffffffffff1673ffffffffffffffffffffffffffffffffffffffff16815260200190815260200160002081905550816000808573ffffffffffffffffffffffffffffffffffffffff1673ffffffffffffffffffffffffffffffffffffffff1681526020019081526020016000206000828254610eab9190611942565b925050819055508273ffffffffffffffffffffffffffffffffffffffff168473ffffffffffffffffffffffffffffffffffffffff167fddf252ad1be2c89b69c2b068fc378daa952ba7f163c4a11628f55a4df523b3ef84604051610f0f9190611845565b60405180910390a3610f22848484610f2d565b50505050565b505050565b505050565b828054610f3e90611a77565b90600052602060002090601f016020900481019282610f605760008555610fa7565b82601f10610f7957805160ff1916838001178555610fa7565b82800160010185558215610fa7579182015b82811115610fa6578251825591602001919060010190610f8b565b5b509050610fb49190610fb8565b5090565b5b80821115610fd1576000816000905550600101610fb9565b5090565b6000610fe8610fe3846118ac565b61187b565b90508281526020810184848401111561100057600080fd5b61100b848285611a35565b509392505050565b60008135905061102281611b47565b92915050565b60008135905061103781611b5e565b92915050565b600082601f83011261104e57600080fd5b813561105e848260208601610fd5565b91505092915050565b60008135905061107681611b75565b92915050565b60006020828403121561108e57600080fd5b600061109c84828501611013565b91505092915050565b600080600080608085870312156110bb57600080fd5b60006110c987828801611028565b94505060206110da87828801611067565b935050604085013567ffffffffffffffff8111156110f757600080fd5b6111038782880161103d565b925050606085013567ffffffffffffffff81111561112057600080fd5b61112c8782880161103d565b91505092959194509250565b6000806040838503121561114b57600080fd5b600061115985828601611013565b925050602061116a85828601611013565b9150509250929050565b60008060006060848603121561118957600080fd5b600061119786828701611013565b93505060206111a886828701611013565b92505060406111b986828701611067565b9150509250925092565b600080604083850312156111d657600080fd5b60006111e485828601611013565b92505060206111f585828601611067565b9150509250929050565b600061120b83836115da565b905092915050565b61121c816119ff565b82525050565b61122b81611998565b82525050565b61123a81611998565b82525050565b600061124b826118ec565b611255818561190f565b935083602082028501611267856118dc565b8060005b858110156112a3578484038952815161128485826111ff565b945061128f83611902565b925060208a0199505060018101905061126b565b50829750879550505050505092915050565b6112be816119bc565b82525050565b60006112cf826118f7565b6112d98185611920565b93506112e9818560208601611a44565b6112f281611b36565b840191505092915050565b6000611308826118f7565b6113128185611931565b9350611322818560208601611a44565b61132b81611b36565b840191505092915050565b6000611343602383611931565b91507f45524332303a207472616e7366657220746f20746865207a65726f206164647260008301527f65737300000000000000000000000000000000000000000000000000000000006020830152604082019050919050565b60006113a9602283611931565b91507f45524332303a20617070726f766520746f20746865207a65726f20616464726560008301527f73730000000000000000000000000000000000000000000000000000000000006020830152604082019050919050565b600061140f601d83611931565b91507f45524332303a20696e73756666696369656e7420616c6c6f77616e63650000006000830152602082019050919050565b600061144f602683611931565b91507f45524332303a207472616e7366657220616d6f756e742065786365656473206260008301527f616c616e636500000000000000000000000000000000000000000000000000006020830152604082019050919050565b60006114b5602583611931565b91507f45524332303a207472616e736665722066726f6d20746865207a65726f20616460008301527f64726573730000000000000000000000000000000000000000000000000000006020830152604082019050919050565b600061151b602483611931565b91507f45524332303a20617070726f76652066726f6d20746865207a65726f2061646460008301527f72657373000000000000000000000000000000000000000000000000000000006020830152604082019050919050565b6000611581602583611931565b91507f45524332303a2064656372656173656420616c6c6f77616e63652062656c6f7760008301527f207a65726f0000000000000000000000000000000000000000000000000000006020830152604082019050919050565b600060c0830160008301516115f26000860182611222565b5060208301516116056020860182611222565b506040830151611618604086018261166a565b506060830151848203606086015261163082826112c4565b9150506080830151611645608086018261166a565b5060a083015184820360a086015261165d82826112c4565b9150508091505092915050565b611673816119e8565b82525050565b611682816119e8565b82525050565b611691816119f2565b82525050565b600060c0820190506116ac6000830189611231565b6116b96020830188611213565b6116c66040830187611679565b81810360608301526116d881866112fd565b90506116e76080830185611679565b81810360a08301526116f981846112fd565b9050979650505050505050565b600060208201905081810360008301526117208184611240565b905092915050565b600060208201905061173d60008301846112b5565b92915050565b6000602082019050818103600083015261175d81846112fd565b905092915050565b6000602082019050818103600083015261177e81611336565b9050919050565b6000602082019050818103600083015261179e8161139c565b9050919050565b600060208201905081810360008301526117be81611402565b9050919050565b600060208201905081810360008301526117de81611442565b9050919050565b600060208201905081810360008301526117fe816114a8565b9050919050565b6000602082019050818103600083015261181e8161150e565b9050919050565b6000602082019050818103600083015261183e81611574565b9050919050565b600060208201905061185a6000830184611679565b92915050565b60006020820190506118756000830184611688565b92915050565b6000604051905081810181811067ffffffffffffffff821117156118a2576118a1611b07565b5b8060405250919050565b600067ffffffffffffffff8211156118c7576118c6611b07565b5b601f19601f8301169050602081019050919050565b6000819050602082019050919050565b600081519050919050565b600081519050919050565b6000602082019050919050565b600082825260208201905092915050565b600082825260208201905092915050565b600082825260208201905092915050565b600061194d826119e8565b9150611958836119e8565b9250827fffffffffffffffffffffffffffffffffffffffffffffffffffffffffffffffff0382111561198d5761198c611aa9565b5b828201905092915050565b60006119a3826119c8565b9050919050565b60006119b5826119c8565b9050919050565b60008115159050919050565b600073ffffffffffffffffffffffffffffffffffffffff82169050919050565b6000819050919050565b600060ff82169050919050565b6000611a0a82611a11565b9050919050565b6000611a1c82611a23565b9050919050565b6000611a2e826119c8565b9050919050565b82818337600083830152505050565b60005b83811015611a62578082015181840152602081019050611a47565b83811115611a71576000848401525b50505050565b60006002820490506001821680611a8f57607f821691505b60208210811415611aa357611aa2611ad8565b5b50919050565b7f4e487b7100000000000000000000000000000000000000000000000000000000600052601160045260246000fd5b7f4e487b7100000000000000000000000000000000000000000000000000000000600052602260045260246000fd5b7f4e487b7100000000000000000000000000000000000000000000000000000000600052604160045260246000fd5b6000601f19601f8301169050919050565b611b5081611998565b8114611b5b57600080fd5b50565b611b67816119aa565b8114611b7257600080fd5b50565b611b7e816119e8565b8114611b8957600080fd5b5056fea264697066735822122099ede471d7b7832532a54bf96d88bca57bf6889064cf85d030cce34202543f9f64736f6c63430008000033",
  "linkReferences": {},
  "deployedLinkReferences": {}
}